{
  "contractName": "Coinflip",
  "abi": [
    {
      "inputs": [
        {
          "internalType": "uint256",
          "name": "_feePercentage",
          "type": "uint256"
        },
        {
          "internalType": "address",
          "name": "initialOwner",
          "type": "address"
        }
      ],
      "stateMutability": "nonpayable",
      "type": "constructor"
    },
    {
      "inputs": [
        {
          "internalType": "address",
          "name": "owner",
          "type": "address"
        }
      ],
      "name": "OwnableInvalidOwner",
      "type": "error"
    },
    {
      "inputs": [
        {
          "internalType": "address",
          "name": "account",
          "type": "address"
        }
      ],
      "name": "OwnableUnauthorizedAccount",
      "type": "error"
    },
    {
      "anonymous": false,
      "inputs": [
        {
          "indexed": false,
          "internalType": "uint256",
          "name": "id",
          "type": "uint256"
        },
        {
          "indexed": false,
          "internalType": "address",
          "name": "initiator",
          "type": "address"
        },
        {
          "indexed": false,
          "internalType": "uint256",
          "name": "value",
          "type": "uint256"
        },
        {
          "indexed": false,
          "internalType": "uint256",
          "name": "diff",
          "type": "uint256"
        }
      ],
      "name": "CoinflipInitiated",
      "type": "event"
    },
    {
      "anonymous": false,
      "inputs": [
        {
          "indexed": false,
          "internalType": "uint256",
          "name": "id",
          "type": "uint256"
        },
        {
          "indexed": false,
          "internalType": "address",
          "name": "joiner",
          "type": "address"
        },
        {
          "indexed": false,
          "internalType": "uint256",
          "name": "value",
          "type": "uint256"
        },
        {
          "indexed": false,
          "internalType": "uint256",
          "name": "diff",
          "type": "uint256"
        }
      ],
      "name": "CoinflipJoined",
      "type": "event"
    },
    {
      "anonymous": false,
      "inputs": [
        {
          "indexed": false,
          "internalType": "uint256",
          "name": "id",
          "type": "uint256"
        },
        {
          "indexed": false,
          "internalType": "bool",
          "name": "result",
          "type": "bool"
        }
      ],
      "name": "CoinflipResult",
      "type": "event"
    },
    {
      "anonymous": false,
      "inputs": [
        {
          "indexed": true,
          "internalType": "address",
          "name": "previousOwner",
          "type": "address"
        },
        {
          "indexed": true,
          "internalType": "address",
          "name": "newOwner",
          "type": "address"
        }
      ],
      "name": "OwnershipTransferred",
      "type": "event"
    },
    {
      "inputs": [],
      "name": "coinflipCount",
      "outputs": [
        {
          "internalType": "uint256",
          "name": "",
          "type": "uint256"
        }
      ],
      "stateMutability": "view",
      "type": "function"
    },
    {
      "inputs": [
        {
          "internalType": "uint256",
          "name": "",
          "type": "uint256"
        }
      ],
      "name": "coinflips",
      "outputs": [
        {
          "internalType": "address",
          "name": "initiator",
          "type": "address"
        },
        {
          "internalType": "address",
          "name": "joiner",
          "type": "address"
        },
        {
          "internalType": "uint256",
          "name": "value",
          "type": "uint256"
        },
        {
          "internalType": "uint256",
          "name": "diff",
          "type": "uint256"
        },
        {
          "internalType": "bool",
          "name": "result",
          "type": "bool"
        }
      ],
      "stateMutability": "view",
      "type": "function"
    },
    {
      "inputs": [],
      "name": "contractBalance",
      "outputs": [
        {
          "internalType": "uint256",
          "name": "",
          "type": "uint256"
        }
      ],
      "stateMutability": "view",
      "type": "function"
    },
    {
      "inputs": [],
      "name": "fee",
      "outputs": [
        {
          "internalType": "uint256",
          "name": "",
          "type": "uint256"
        }
      ],
      "stateMutability": "view",
      "type": "function"
    },
    {
      "inputs": [],
      "name": "feeBalance",
      "outputs": [
        {
          "internalType": "uint256",
          "name": "",
          "type": "uint256"
        }
      ],
      "stateMutability": "view",
      "type": "function"
    },
    {
      "inputs": [],
      "name": "feePercentage",
      "outputs": [
        {
          "internalType": "uint256",
          "name": "",
          "type": "uint256"
        }
      ],
      "stateMutability": "view",
      "type": "function"
    },
    {
      "inputs": [],
      "name": "owner",
      "outputs": [
        {
          "internalType": "address",
          "name": "",
          "type": "address"
        }
      ],
      "stateMutability": "view",
      "type": "function"
    },
    {
      "inputs": [],
      "name": "renounceOwnership",
      "outputs": [],
      "stateMutability": "nonpayable",
      "type": "function"
    },
    {
      "inputs": [
        {
          "internalType": "address",
          "name": "newOwner",
          "type": "address"
        }
      ],
      "name": "transferOwnership",
      "outputs": [],
      "stateMutability": "nonpayable",
      "type": "function"
    },
    {
      "inputs": [
        {
          "internalType": "uint256",
          "name": "_feePercentage",
          "type": "uint256"
        }
      ],
      "name": "setFeePercentage",
      "outputs": [],
      "stateMutability": "nonpayable",
      "type": "function"
    },
    {
      "inputs": [
        {
          "internalType": "uint256",
          "name": "_fee",
          "type": "uint256"
        }
      ],
      "name": "setFee",
      "outputs": [],
      "stateMutability": "nonpayable",
      "type": "function"
    },
    {
      "inputs": [
        {
          "internalType": "uint256",
          "name": "_diff",
          "type": "uint256"
        }
      ],
      "name": "initiateCoinflip",
      "outputs": [],
      "stateMutability": "payable",
      "type": "function"
    },
    {
      "inputs": [
        {
          "internalType": "uint256",
          "name": "_id",
          "type": "uint256"
        }
      ],
      "name": "joinCoinflip",
      "outputs": [],
      "stateMutability": "payable",
      "type": "function"
    },
    {
      "inputs": [
        {
          "internalType": "uint256",
          "name": "_id",
          "type": "uint256"
        }
      ],
      "name": "cancelCoinflip",
      "outputs": [],
      "stateMutability": "nonpayable",
      "type": "function"
    }
  ],
  "bytecode": "0x608060405234801561000f575f80fd5b5060405161184738038061184783398181016040528101906100319190610212565b805f73ffffffffffffffffffffffffffffffffffffffff168173ffffffffffffffffffffffffffffffffffffffff16036100a2575f6040517f1e4fbdf7000000000000000000000000000000000000000000000000000000008152600401610099919061025f565b60405180910390fd5b6100b1816100c060201b60201c565b50816004819055505050610278565b5f805f9054906101000a900473ffffffffffffffffffffffffffffffffffffffff169050815f806101000a81548173ffffffffffffffffffffffffffffffffffffffff021916908373ffffffffffffffffffffffffffffffffffffffff1602179055508173ffffffffffffffffffffffffffffffffffffffff168173ffffffffffffffffffffffffffffffffffffffff167f8be0079c531659141344cd1fd0a4f28419497f9722a3daafe3b4186f6b6457e060405160405180910390a35050565b5f80fd5b5f819050919050565b61019781610185565b81146101a1575f80fd5b50565b5f815190506101b28161018e565b92915050565b5f73ffffffffffffffffffffffffffffffffffffffff82169050919050565b5f6101e1826101b8565b9050919050565b6101f1816101d7565b81146101fb575f80fd5b50565b5f8151905061020c816101e8565b92915050565b5f806040838503121561022857610227610181565b5b5f610235858286016101a4565b9250506020610246858286016101fe565b9150509250929050565b610259816101d7565b82525050565b5f6020820190506102725f830184610250565b92915050565b6115c2806102855f395ff3fe6080604052600436106100dc575f3560e01c80638da5cb5b1161007e578063ae06c1b711610058578063ae06c1b714610274578063dc1a7f181461029c578063ddca3f43146102b8578063f2fde38b146102e2576100dc565b80638da5cb5b146101e05780639459aabc1461020a578063a001ecdd1461024a576100dc565b806369fe0e2d116100ba57806369fe0e2d1461014e578063715018a6146101765780637d63fd9e1461018c5780638b7afe2e146101b6576100dc565b806328167279146100e05780632db3729e146100fc57806360b71d4e14610124575b5f80fd5b6100fa60048036038101906100f59190610f55565b61030a565b005b348015610107575f80fd5b50610122600480360381019061011d9190610f55565b6107e2565b005b34801561012f575f80fd5b50610138610a2a565b6040516101459190610f8f565b60405180910390f35b348015610159575f80fd5b50610174600480360381019061016f9190610f55565b610a30565b005b348015610181575f80fd5b5061018a610a42565b005b348015610197575f80fd5b506101a0610a55565b6040516101ad9190610f8f565b60405180910390f35b3480156101c1575f80fd5b506101ca610a5b565b6040516101d79190610f8f565b60405180910390f35b3480156101eb575f80fd5b506101f4610a61565b6040516102019190610fe7565b60405180910390f35b348015610215575f80fd5b50610230600480360381019061022b9190610f55565b610a88565b60405161024195949392919061101a565b60405180910390f35b348015610255575f80fd5b5061025e610b04565b60405161026b9190610f8f565b60405180910390f35b34801561027f575f80fd5b5061029a60048036038101906102959190610f55565b610b0a565b005b6102b660048036038101906102b19190610f55565b610b1c565b005b3480156102c3575f80fd5b506102cc610d45565b6040516102d99190610f8f565b60405180910390f35b3480156102ed575f80fd5b5061030860048036038101906103039190611095565b610d4b565b005b5f341161034c576040517f08c379a00000000000000000000000000000000000000000000000000000000081526004016103439061111a565b60405180910390fd5b5f73ffffffffffffffffffffffffffffffffffffffff1660015f8381526020019081526020015f205f015f9054906101000a900473ffffffffffffffffffffffffffffffffffffffff1673ffffffffffffffffffffffffffffffffffffffff16036103ec576040517f08c379a00000000000000000000000000000000000000000000000000000000081526004016103e390611182565b60405180910390fd5b5f73ffffffffffffffffffffffffffffffffffffffff1660015f8381526020019081526020015f206001015f9054906101000a900473ffffffffffffffffffffffffffffffffffffffff1673ffffffffffffffffffffffffffffffffffffffff161461048d576040517f08c379a0000000000000000000000000000000000000000000000000000000008152600401610484906111ea565b60405180910390fd5b606460015f8381526020019081526020015f206003015460015f8481526020019081526020015f20600201546104c39190611235565b6104cd91906112a3565b341461050e576040517f08c379a00000000000000000000000000000000000000000000000000000000081526004016105059061131d565b60405180910390fd5b3360015f8381526020019081526020015f206001015f6101000a81548173ffffffffffffffffffffffffffffffffffffffff021916908373ffffffffffffffffffffffffffffffffffffffff1602179055503460065f828254610571919061133b565b925050819055507f0deb6dbdbe0b5d527f4a6fab1af8c6e4ae3bb397d38ba01c2df78527f932e54f81333460015f8681526020019081526020015f20600301546040516105c1949392919061136e565b60405180910390a15f6002426040516020016105dd91906113d1565b604051602081830303815290604052805190602001205f1c6105ff91906113eb565b90505f811460015f8481526020019081526020015f206004015f6101000a81548160ff02191690831515021790555060015f8381526020019081526020015f206004015f9054906101000a900460ff16156106ee5760015f8381526020019081526020015f205f015f9054906101000a900473ffffffffffffffffffffffffffffffffffffffff1673ffffffffffffffffffffffffffffffffffffffff166108fc3460015f8681526020019081526020015f20600201546106c0919061133b565b90811502906040515f60405180830381858888f193505050501580156106e8573d5f803e3d5ffd5b50610785565b60015f8381526020019081526020015f206001015f9054906101000a900473ffffffffffffffffffffffffffffffffffffffff1673ffffffffffffffffffffffffffffffffffffffff166108fc3460015f8681526020019081526020015f206002015461075b919061133b565b90811502906040515f60405180830381858888f19350505050158015610783573d5f803e3d5ffd5b505b7fe7e62f6fa85acb02a9f6572884d51ebe57aac8ae3c73cb35540ce43abd7743338260015f8581526020019081526020015f206004015f9054906101000a900460ff166040516107d692919061141b565b60405180910390a15050565b3373ffffffffffffffffffffffffffffffffffffffff1660015f8381526020019081526020015f205f015f9054906101000a900473ffffffffffffffffffffffffffffffffffffffff1673ffffffffffffffffffffffffffffffffffffffff1614610882576040517f08c379a00000000000000000000000000000000000000000000000000000000081526004016108799061148c565b60405180910390fd5b5f73ffffffffffffffffffffffffffffffffffffffff1660015f8381526020019081526020015f206001015f9054906101000a900473ffffffffffffffffffffffffffffffffffffffff1673ffffffffffffffffffffffffffffffffffffffff1614610923576040517f08c379a000000000000000000000000000000000000000000000000000000000815260040161091a906111ea565b60405180910390fd5b3373ffffffffffffffffffffffffffffffffffffffff166108fc60015f8481526020019081526020015f206002015490811502906040515f60405180830381858888f1935050505015801561097a573d5f803e3d5ffd5b5060015f8281526020019081526020015f206002015460065f8282546109a091906114aa565b9250508190555060015f8281526020019081526020015f205f8082015f6101000a81549073ffffffffffffffffffffffffffffffffffffffff0219169055600182015f6101000a81549073ffffffffffffffffffffffffffffffffffffffff0219169055600282015f9055600382015f9055600482015f6101000a81549060ff0219169055505050565b60055481565b610a38610dcf565b8060038190555050565b610a4a610dcf565b610a535f610e56565b565b60025481565b60065481565b5f805f9054906101000a900473ffffffffffffffffffffffffffffffffffffffff16905090565b6001602052805f5260405f205f91509050805f015f9054906101000a900473ffffffffffffffffffffffffffffffffffffffff1690806001015f9054906101000a900473ffffffffffffffffffffffffffffffffffffffff1690806002015490806003015490806004015f9054906101000a900460ff16905085565b60045481565b610b12610dcf565b8060048190555050565b5f3411610b5e576040517f08c379a0000000000000000000000000000000000000000000000000000000008152600401610b559061111a565b60405180910390fd5b5f81118015610b6d5750606481105b610bac576040517f08c379a0000000000000000000000000000000000000000000000000000000008152600401610ba390611527565b60405180910390fd5b60025f815480929190610bbe90611545565b91905055506040518060a001604052803373ffffffffffffffffffffffffffffffffffffffff1681526020015f73ffffffffffffffffffffffffffffffffffffffff1681526020013481526020018281526020015f151581525060015f60025481526020019081526020015f205f820151815f015f6101000a81548173ffffffffffffffffffffffffffffffffffffffff021916908373ffffffffffffffffffffffffffffffffffffffff1602179055506020820151816001015f6101000a81548173ffffffffffffffffffffffffffffffffffffffff021916908373ffffffffffffffffffffffffffffffffffffffff16021790555060408201518160020155606082015181600301556080820151816004015f6101000a81548160ff0219169083151502179055509050503460065f828254610cfc919061133b565b925050819055507fc8da77245fb78c534609c5c56ce61b3854d225901cef601b26df5ad688020b10600254333484604051610d3a949392919061136e565b60405180910390a150565b60035481565b610d53610dcf565b5f73ffffffffffffffffffffffffffffffffffffffff168173ffffffffffffffffffffffffffffffffffffffff1603610dc3575f6040517f1e4fbdf7000000000000000000000000000000000000000000000000000000008152600401610dba9190610fe7565b60405180910390fd5b610dcc81610e56565b50565b610dd7610f17565b73ffffffffffffffffffffffffffffffffffffffff16610df5610a61565b73ffffffffffffffffffffffffffffffffffffffff1614610e5457610e18610f17565b6040517f118cdaa7000000000000000000000000000000000000000000000000000000008152600401610e4b9190610fe7565b60405180910390fd5b565b5f805f9054906101000a900473ffffffffffffffffffffffffffffffffffffffff169050815f806101000a81548173ffffffffffffffffffffffffffffffffffffffff021916908373ffffffffffffffffffffffffffffffffffffffff1602179055508173ffffffffffffffffffffffffffffffffffffffff168173ffffffffffffffffffffffffffffffffffffffff167f8be0079c531659141344cd1fd0a4f28419497f9722a3daafe3b4186f6b6457e060405160405180910390a35050565b5f33905090565b5f80fd5b5f819050919050565b610f3481610f22565b8114610f3e575f80fd5b50565b5f81359050610f4f81610f2b565b92915050565b5f60208284031215610f6a57610f69610f1e565b5b5f610f7784828501610f41565b91505092915050565b610f8981610f22565b82525050565b5f602082019050610fa25f830184610f80565b92915050565b5f73ffffffffffffffffffffffffffffffffffffffff82169050919050565b5f610fd182610fa8565b9050919050565b610fe181610fc7565b82525050565b5f602082019050610ffa5f830184610fd8565b92915050565b5f8115159050919050565b61101481611000565b82525050565b5f60a08201905061102d5f830188610fd8565b61103a6020830187610fd8565b6110476040830186610f80565b6110546060830185610f80565b611061608083018461100b565b9695505050505050565b61107481610fc7565b811461107e575f80fd5b50565b5f8135905061108f8161106b565b92915050565b5f602082840312156110aa576110a9610f1e565b5b5f6110b784828501611081565b91505092915050565b5f82825260208201905092915050565b7f56616c7565206d7573742062652067726561746572207468616e2030000000005f82015250565b5f611104601c836110c0565b915061110f826110d0565b602082019050919050565b5f6020820190508181035f830152611131816110f8565b9050919050565b7f436f696e666c697020646f6573206e6f742065786973740000000000000000005f82015250565b5f61116c6017836110c0565b915061117782611138565b602082019050919050565b5f6020820190508181035f83015261119981611160565b9050919050565b7f436f696e666c697020616c7265616479206a6f696e65640000000000000000005f82015250565b5f6111d46017836110c0565b91506111df826111a0565b602082019050919050565b5f6020820190508181035f830152611201816111c8565b9050919050565b7f4e487b71000000000000000000000000000000000000000000000000000000005f52601160045260245ffd5b5f61123f82610f22565b915061124a83610f22565b925082820261125881610f22565b9150828204841483151761126f5761126e611208565b5b5092915050565b7f4e487b71000000000000000000000000000000000000000000000000000000005f52601260045260245ffd5b5f6112ad82610f22565b91506112b883610f22565b9250826112c8576112c7611276565b5b828204905092915050565b7f56616c7565206d75737420626520657175616c20746f206469666600000000005f82015250565b5f611307601b836110c0565b9150611312826112d3565b602082019050919050565b5f6020820190508181035f830152611334816112fb565b9050919050565b5f61134582610f22565b915061135083610f22565b925082820190508082111561136857611367611208565b5b92915050565b5f6080820190506113815f830187610f80565b61138e6020830186610fd8565b61139b6040830185610f80565b6113a86060830184610f80565b95945050505050565b5f819050919050565b6113cb6113c682610f22565b6113b1565b82525050565b5f6113dc82846113ba565b60208201915081905092915050565b5f6113f582610f22565b915061140083610f22565b9250826114105761140f611276565b5b828206905092915050565b5f60408201905061142e5f830185610f80565b61143b602083018461100b565b9392505050565b7f4f6e6c7920696e69746961746f722063616e2063616e63656c000000000000005f82015250565b5f6114766019836110c0565b915061148182611442565b602082019050919050565b5f6020820190508181035f8301526114a38161146a565b9050919050565b5f6114b482610f22565b91506114bf83610f22565b92508282039050818111156114d7576114d6611208565b5b92915050565b7f44696666206d757374206265206265747765656e203020616e642031303000005f82015250565b5f611511601e836110c0565b915061151c826114dd565b602082019050919050565b5f6020820190508181035f83015261153e81611505565b9050919050565b5f61154f82610f22565b91507fffffffffffffffffffffffffffffffffffffffffffffffffffffffffffffffff820361158157611580611208565b5b60018201905091905056fea264697066735822122048126306ead539dd1a0fd956a63f0a279ae52bf2dbfec82f2d96453d1074350064736f6c63430008190033",
  "immutableReferences": {},
  "source": "// A solidity coinflip game\r\n\r\n// Author: 1CY.ETH\r\n// Take a flat fee over x value coinflip\r\n// Under x value, it should be free\r\n// Could be calculated as a % of coinflip value, and payed in native balance\r\n// Allow the iniater of the coinflip, to set a diff % of the coinflip value, that the other player has to pay\r\n// Either a straight 50%50 odds, or more tilted like 20%80, or 80%20 - the math random chance should reflect that\r\n// Take usage of chainlink fair randomness VRF, to make the coinflip random\r\n// Events for coinflips initiated, conflip joined, coinflip result\r\n// Coinflips are stored in a mapping, with a unique id, and the initiator, the joiner, the value, the diff %, and the result\r\n// The contract should have a balance, that is the sum of all coinflips, and the contract should be able to pay out the winner\r\n// The contract should have a fee, that is a % of the coinflip value, and the contract should be able to pay out the fee to the contract owner\r\n// The conflip has a status of initiated or finished\r\n// If the status is initiated, the initiator can cancel the coinflip, and get the value back\r\n\r\npragma solidity ^0.8.19;\r\n\r\nimport \"@openzeppelin/contracts/access/Ownable.sol\";\r\nimport \"@openzeppelin/contracts/token/ERC20/IERC20.sol\";\r\nimport \"@openzeppelin/contracts/token/ERC721/IERC721.sol\";\r\nimport \"@openzeppelin/contracts/utils/Strings.sol\";\r\n\r\ncontract Coinflip is Ownable {\r\n    // Initialize the Ownable contract with the specified feePercentage argument\r\n    struct Coinflip {\r\n        address initiator;\r\n        address joiner;\r\n        uint value;\r\n        uint diff;\r\n        bool result; // true = initiator wins, false = joiner wins\r\n    }\r\n\r\n    mapping(uint => Coinflip) public coinflips;\r\n    uint public coinflipCount;\r\n    uint public fee;\r\n    uint public feePercentage;\r\n    uint public feeBalance;\r\n    uint public contractBalance;\r\n\r\n    event CoinflipInitiated(uint id, address initiator, uint value, uint diff);\r\n    event CoinflipJoined(uint id, address joiner, uint value, uint diff);\r\n    event CoinflipResult(uint id, bool result);\r\n\r\n    constructor(\r\n        uint _feePercentage,\r\n        address initialOwner\r\n    ) Ownable(initialOwner) {\r\n        feePercentage = _feePercentage;\r\n    }\r\n\r\n    function setFeePercentage(uint _feePercentage) external onlyOwner {\r\n        feePercentage = _feePercentage;\r\n    }\r\n\r\n    function setFee(uint _fee) external onlyOwner {\r\n        fee = _fee;\r\n    }\r\n\r\n    function initiateCoinflip(uint _diff) external payable {\r\n        require(msg.value > 0, \"Value must be greater than 0\");\r\n        require(_diff > 0 && _diff < 100, \"Diff must be between 0 and 100\");\r\n\r\n        coinflipCount++;\r\n        coinflips[coinflipCount] = Coinflip(\r\n            msg.sender,\r\n            address(0),\r\n            msg.value,\r\n            _diff,\r\n            false\r\n        );\r\n        contractBalance += msg.value;\r\n        emit CoinflipInitiated(coinflipCount, msg.sender, msg.value, _diff);\r\n    }\r\n\r\n    function joinCoinflip(uint _id) external payable {\r\n        require(msg.value > 0, \"Value must be greater than 0\");\r\n        require(\r\n            coinflips[_id].initiator != address(0),\r\n            \"Coinflip does not exist\"\r\n        );\r\n        require(coinflips[_id].joiner == address(0), \"Coinflip already joined\");\r\n        require(\r\n            msg.value == (coinflips[_id].value * coinflips[_id].diff) / 100,\r\n            \"Value must be equal to diff\"\r\n        ); //Check the value is aligning with diff of initiater value\r\n\r\n        coinflips[_id].joiner = msg.sender;\r\n        contractBalance += msg.value;\r\n        emit CoinflipJoined(_id, msg.sender, msg.value, coinflips[_id].diff);\r\n\r\n        //Start resolving the conflip\r\n        uint random = uint(keccak256(abi.encodePacked(block.timestamp))) % 2;\r\n        coinflips[_id].result = random == 0;\r\n        if (coinflips[_id].result) {\r\n            payable(coinflips[_id].initiator).transfer(\r\n                coinflips[_id].value + msg.value\r\n            );\r\n        } else {\r\n            payable(coinflips[_id].joiner).transfer(\r\n                coinflips[_id].value + msg.value\r\n            );\r\n        }\r\n\r\n        emit CoinflipResult(_id, coinflips[_id].result);\r\n    }\r\n\r\n    function cancelCoinflip(uint _id) external {\r\n        require(\r\n            coinflips[_id].initiator == msg.sender,\r\n            \"Only initiator can cancel\"\r\n        );\r\n        require(coinflips[_id].joiner == address(0), \"Coinflip already joined\");\r\n\r\n        payable(msg.sender).transfer(coinflips[_id].value);\r\n        contractBalance -= coinflips[_id].value;\r\n        delete coinflips[_id];\r\n    }\r\n}\r\n",
  "sourcePath": "C:\\Develop\\Github\\an-idea\\contracts\\contracts\\coinflip.sol",
  "compiler": {
    "name": "solc",
    "version": "0.8.25+commit.b61c2a91.Emscripten.clang"
  },
  "schemaVersion": "3.4.16",
  "updatedAt": "2024-04-24T16:32:23.346Z",
  "devdoc": {
    "errors": {
      "OwnableInvalidOwner(address)": [
        {
          "details": "The owner is not a valid owner account. (eg. `address(0)`)"
        }
      ],
      "OwnableUnauthorizedAccount(address)": [
        {
          "details": "The caller account is not authorized to perform an operation."
        }
      ]
    },
    "kind": "dev",
    "methods": {
      "owner()": {
        "details": "Returns the address of the current owner."
      },
      "renounceOwnership()": {
        "details": "Leaves the contract without owner. It will not be possible to call `onlyOwner` functions. Can only be called by the current owner. NOTE: Renouncing ownership will leave the contract without an owner, thereby disabling any functionality that is only available to the owner."
      },
      "transferOwnership(address)": {
        "details": "Transfers ownership of the contract to a new account (`newOwner`). Can only be called by the current owner."
      }
    },
    "version": 1
  },
  "userdoc": {
    "kind": "user",
    "methods": {},
    "version": 1
  }
}